:100000000C945D000C9485000C9485000C94850084
:100010000C9485000C9485000C9485000C9485004C
:100020000C9485000C9485000C9485000C9485003C
:100030000C9485000C9485000C9485000C9485002C
:100040000C94F1020C9485000C9461030C943B0316
:100050000C9485000C9485000C9485000C9485000C
:100060000C9485000C9485000000000024002700FB
:100070002A0000000000250028002B0004040404CE
:100080000404040402020202020203030303030342
:10009000010204081020408001020408102001021F
:1000A00004081020000000080002010000030407FB
:1000B0000000000000000000930311241FBECFEFDA
:1000C000D8E0DEBFCDBF11E0A0E0B1E0EAE6FFE09E
:1000D00002C005900D92A631B107D9F721E0A6E143
:1000E000B1E001C01D92A13CB207E1F710E0CDE5FF
:1000F000D0E004C02197FE010E94A807CC35D107AB
:10010000C9F70E94F1030C94B3070C94000090E02F
:10011000FC01EC55FF4F2491FC01E057FF4F349157
:10012000FC01E458FF4FE491EE2309F43CC0222384
:1001300039F1233091F038F42130A9F0223001F563
:1001400084B58F7D12C0273091F02830A1F0243083
:10015000B9F4809180008F7D03C0809180008F77FB
:10016000809380000DC084B58F7784BD09C08091D5
:10017000B0008F7703C08091B0008F7D8093B00076
:10018000F0E0EE0FFF1FEE58FF4FA591B4919FB71F
:10019000F894611104C08C913095382302C0EC9121
:1001A0003E2B3C939FBF0895CF93DF9390E0FC01DB
:1001B000E057FF4F2491FC01E458FF4F84918823BE
:1001C00061F190E0880F991FFC01E859FF4FC5913C
:1001D000D491FC01EE58FF4FA591B491611109C073
:1001E0009FB7F8948881209582238883EC912E23F1
:1001F0000BC0623061F49FB7F8948881322F30953C
:1002000083238883EC912E2B2C939FBF06C08FB73E
:10021000F894E8812E2B28838FBFDF91CF9108952A
:100220008E3008F08E508770806480937C008091BF
:100230007A00806480937A0080917A0086FDFCCFFA
:10024000809178002091790090E0922B08953FB73B
:10025000F89480911B0190911C01A0911D01B09117
:100260001E0126B5A89B05C02F3F19F00196A11DC0
:10027000B11D3FBFBA2FA92F982F8827820F911D3C
:10028000A11DB11DBC01CD0142E0660F771F881F83
:10029000991F4A95D1F708958F929F92AF92BF927E
:1002A000CF92DF92EF92FF926B017C010E942701B7
:1002B0004B015C01C114D104E104F104F1F00E948E
:1002C0002701DC01CB0188199909AA09BB09883EDD
:1002D0009340A105B10570F321E0C21AD108E108ED
:1002E000F10888EE880E83E0981EA11CB11CC11491
:1002F000D104E104F10419F7DDCFFF90EF90DF9016
:10030000CF90BF90AF909F908F900895CF92DF9243
:10031000EF92FF920F931F93CF93DF936C017A01BB
:100320008B01C0E0D0E0CE15DF0581F0D8016D91E2
:100330008D01D601ED91FC910190F081E02DC60177
:100340000995892B11F02196EECF7E01C701DF912F
:10035000CF911F910F91FF90EF90DF90CF90089574
:10036000089580E090E00895FC01538D448D252F81
:1003700030E0842F90E0821B930B541710F0CF963F
:10038000089501970895FC01918D828D981761F071
:10039000828DDF01A80FB11D5D968C91928D9F5FBC
:1003A0009F73928F90E008958FEF9FEF0895FC0167
:1003B000918D828D981731F0828DE80FF11D858D1A
:1003C00090E008958FEF9FEF0895FC01918D228DAD
:1003D000892F90E0805C9F4F821B91098F73992732
:1003E00008958FE191E00E94E50121E0892B09F455
:1003F00020E0822F0895FC01848DDF01A80FB11D3C
:10040000A35ABF4F2C91848D90E001968F7399274A
:10041000848FA689B7892C93A089B1898C91837028
:1004200080648C93938D848D981306C00288F38921
:10043000E02D80818F7D80830895EF92FF920F934E
:100440001F93CF93DF93EC0181E0888F9B8D8C8D80
:10045000981305C0E889F989808185FD26C0F62EAC
:100460000B8D10E00F5F1F4F0F731127E02E8C8D47
:10047000E8120CC00FB607FCFACFE889F989808131
:1004800085FFF5CFCE010E94FB01F1CF8B8DFE01E0
:10049000E80FF11DE35AFF4FF0829FB7F8940B8FDE
:1004A000EA89FB89808180620AC09FB7F894EE894F
:1004B000FF896083E889F989808183708064808303
:1004C0009FBF81E090E0DF91CF911F910F91FF904E
:1004D000EF900895CF93DF93EC01888D8823C9F0C6
:1004E000EA89FB89808185FD05C0A889B9898C913D
:1004F00086FD0FC00FB607FCF5CF808185FFF2CFD8
:10050000A889B9898C9185FFEDCFCE010E94FB01AE
:10051000E7CFDF91CF91089580E090E0892B29F01B
:100520000E94F10181110C94000008958F929F9216
:10053000AF92BF920F931F93CF93DF93CDB7DEB7E8
:10054000A1970FB6F894DEBF0FBECDBF19A24230FF
:1005500008F44AE08E010F5D1F4F842E912CA12CD0
:10056000B12CA50194010E948607E62FB901CA01AA
:1005700001501109EA3014F4E05D01C0E95CD801D2
:10058000EC93232B242B252B61F70115110571F01A
:10059000F80101900020E9F73197AF01401B510BA2
:1005A000B8018FE191E00E94860102C080E090E0F6
:1005B000A1960FB6F894DEBF0FBECDBFDF91CF91ED
:1005C0001F910F91BF90AF909F908F90089542E040
:1005D00050E062E171E08FE191E00C9486010E94AD
:1005E000AE071F920F920FB60F9211242F933F93D5
:1005F0008F939F93AF93BF938091170190911801B0
:10060000A0911901B0911A013091160123E0230F36
:100610002D3720F40196A11DB11D05C026E8230F3A
:100620000296A11DB11D209316018093170190938E
:100630001801A0931901B0931A0180911B019091A8
:100640001C01A0911D01B0911E010196A11DB11DBB
:1006500080931B0190931C01A0931D01B0931E0178
:10066000BF91AF919F918F913F912F910F900FBEAE
:100670000F901F9018951F920F920FB60F92112492
:100680002F933F934F935F936F937F938F939F939A
:10069000AF93BF93EF93FF938FE191E00E94FB0133
:1006A000FF91EF91BF91AF919F918F917F916F914A
:1006B0005F914F913F912F910F900FBE0F901F9020
:1006C00018951F920F920FB60F9211242F938F93AC
:1006D0009F93EF93FF93E0912F01F0913001808180
:1006E000E0913501F091360182FD12C09081809138
:1006F00038018F5F8F7320913901821751F0E0919B
:100700003801F0E0E15EFE4F958F8093380101C023
:100710008081FF91EF919F918F912F910F900FBE4C
:100720000F901F901895CF93DF93EFE1F1E01382C4
:10073000128288EE93E0A0E0B0E084839583A683E4
:10074000B78384E091E09183808385EC90E0958786
:10075000848784EC90E09787868780EC90E0918B8B
:10076000808B81EC90E0938B828B82EC90E0958B78
:10077000848B86EC90E0978B868B118E128E138E75
:10078000148EEEEBF1E08DE080838CE081838EE0CF
:10079000828361E08DE00E94D40060E08DE00E94E1
:1007A000870061E08CE00E94D40060E08CE00E9451
:1007B000870060E08EE00E94D400CCEBD1E088E0BE
:1007C00088838FE0898361E088E00E94D40060E044
:1007D0008FE00E94D40061E08881DF91CF910C947A
:1007E0008700789484B5826084BD84B5816084BDBF
:1007F00085B5826085BD85B5816085BD80916E00BF
:10080000816080936E0010928100809181008260EF
:10081000809381008091810081608093810080912C
:1008200080008160809380008091B100846080931B
:10083000B1008091B00081608093B00080917A0017
:10084000846080937A0080917A00826080937A003D
:1008500080917A00816080937A0080917A0080682C
:1008600080937A001092C10061E084E00E94D4007D
:1008700061E084E00E94870068EE73E080E090E031
:100880000E944C01E0912F01F091300182E08083C1
:10089000E0912B01F0912C011082E0912D01F0915B
:1008A0002E018FEC808310923701E0913301F0919B
:1008B000340186E08083E0913101F0913201808142
:1008C00080618083E0913101F09132018081886004
:1008D0008083E0913101F0913201808180688083D2
:1008E000E0913101F091320180818F7D8083CBE2F4
:1008F000D1E10BE113E060E084E00E94870068EE44
:1009000073E080E090E00E944C018FE191E00E9452
:10091000E501892BA1F38FE191E00E94E501892B8C
:1009200031F08FE191E00E94C3018111F4CF61E0C9
:1009300084E00E94870060E08091BE010E948700F1
:1009400061E08091BF010E94870061E070E080E07B
:1009500090E00E944C018091C0010E9410017C0136
:1009600061E08091BE010E94870060E08091BF013C
:100970000E948700CE010197F1F760E08091BE01EF
:100980000E948700B70180E090E00E94620620E0AC
:1009900030EC4FE754E40E94BA0520E030E048EC28
:1009A00052E40E94F5060E94330670E080E090E079
:1009B0004AE00E9496020E94E70261E08091BC0139
:1009C0000E948700C8010197F1F78091BD010E9444
:1009D00010017C0160E08091BC010E948700B7019A
:1009E00080E090E00E94620620E030E040EA50E4BF
:1009F0000E94F50620E030E040E85AE30E94F50648
:100A000020E030E040E05FE30E944D0520E030E070
:100A100048EC52E40E94F5066B017C0120E030E0D6
:100A2000A9010E94F00687FD09C020E030E040E007
:100A30005FE3C701B6010E944E0508C020E030E028
:100A400040E05FE3C701B6010E944D050E942C06FD
:100A5000C62E660FDD08EE08FF08F7FE0EC06DE239
:100A60008FE191E00E941D0266277727CB016C1968
:100A70007D098E099F094AE003C04AE0C701B6011B
:100A80000E9496020E94E70268EE73E080E090E028
:100A90000E944C010E948C022ECF5058BB27AA27DF
:100AA0000E9465050C94B6060E94A80638F00E94C4
:100AB000AF0620F039F49F3F19F426F40C94A506F4
:100AC0000EF4E095E7FB0C949F06E92F0E94C70601
:100AD00058F3BA17620773078407950720F079F473
:100AE000A6F50C94E9060EF4E0950B2EBA2FA02D76
:100AF0000B01B90190010C01CA01A0011124FF27CB
:100B0000591B99F0593F50F4503E68F11A16F040C5
:100B1000A22F232F342F4427585FF3CF46953795C4
:100B20002795A795F0405395C9F77EF41F16BA0B89
:100B3000620B730B840BBAF09150A1F0FF0FBB1F37
:100B4000661F771F881FC2F70EC0BA0F621F731F80
:100B5000841F48F4879577956795B795F7959E3FDD
:100B600008F0B0CF9395880F08F09927EE0F97956E
:100B7000879508950E94CE050C94B6060E94AF0694
:100B800058F00E94A80640F029F45F3F29F00C9429
:100B90009F0651110C94EA060C94A5060E94C70604
:100BA00068F39923B1F3552391F3951B550BBB279C
:100BB000AA2762177307840738F09F5F5F4F220FE1
:100BC000331F441FAA1FA9F335D00E2E3AF0E0E8D8
:100BD00032D091505040E695001CCAF72BD0FE2F22
:100BE00029D0660F771F881FBB1F261737074807B6
:100BF000AB07B0E809F0BB0B802DBF01FF2793586E
:100C00005F4F3AF09E3F510578F00C949F060C948C
:100C1000EA065F3FE4F3983ED4F3869577956795AF
:100C2000B795F7959F5FC9F7880F911D96958795A2
:100C300097F90895E1E0660F771F881FBB1F6217C1
:100C400073078407BA0720F0621B730B840BBA0B7F
:100C5000EE1F88F7E09508950E9433066894B1115D
:100C60000C94EA0608950E94CF0688F09F5798F0EA
:100C7000B92F9927B751B0F0E1F0660F771F881FA1
:100C8000991F1AF0BA95C9F714C0B13091F00E94BB
:100C9000E906B1E008950C94E906672F782F8827BC
:100CA000B85F39F0B93FCCF3869577956795B395E2
:100CB000D9F73EF490958095709561957F4F8F4F51
:100CC0009F4F0895E89409C097FB3EF49095809556
:100CD000709561957F4F8F4F9F4F9923A9F0F92F02
:100CE00096E9BB279395F695879577956795B79580
:100CF000F111F8CFFAF4BB0F11F460FF1BC06F5F66
:100D00007F4F8F4F9F4F16C0882311F096E911C077
:100D1000772321F09EE8872F762F05C0662371F098
:100D200096E8862F70E060E02AF09A95660F771FAC
:100D3000881FDAF7880F9695879597F9089597F9A0
:100D40009F6780E870E060E008959FEF80EC089571
:100D500000240A941616170618060906089500249A
:100D60000A9412161306140605060895092E039414
:100D7000000C11F4882352F0BB0F40F4BF2B11F488
:100D800060FF04C06F5F7F4F8F4F9F4F089557FDE7
:100D90009058440F551F59F05F3F71F04795880FE9
:100DA00097FB991F61F09F3F79F087950895121680
:100DB00013061406551FF2CF4695F1DF08C016162C
:100DC00017061806991FF1CF8695710561050894DD
:100DD0000895E894BB2766277727CB0197F90895F4
:100DE0000E94620708F48FEF08950E9408070C9490
:100DF000B6060E94A80638F00E94AF0620F09523A0
:100E000011F00C949F060C94A50611240C94EA068C
:100E10000E94C70670F3959FC1F3950F50E0551FD0
:100E2000629FF001729FBB27F00DB11D639FAA273F
:100E3000F00DB11DAA1F649F6627B00DA11D661F8E
:100E4000829F2227B00DA11D621F739FB00DA11DAF
:100E5000621F839FA00D611D221F749F3327A00D69
:100E6000611D231F849F600D211D822F762F6A2F05
:100E700011249F5750409AF0F1F088234AF0EE0F6A
:100E8000FF1FBB1F661F771F881F91505040A9F797
:100E90009E3F510580F00C949F060C94EA065F3F3C
:100EA000E4F3983ED4F3869577956795B795F795D3
:100EB000E7959F5FC1F7FE2B880F911D969587954B
:100EC00097F90895990F0008550FAA0BE0E8FEEF77
:100ED00016161706E807F907C0F012161306E407FE
:100EE000F50798F0621B730B840B950B39F40A26F7
:100EF00061F0232B242B252B21F408950A2609F4D5
:100F0000A140A6958FEF811D811D0895A1E21A2EA3
:100F1000AA1BBB1BFD010DC0AA1FBB1FEE1FFF1F9D
:100F2000A217B307E407F50720F0A21BB30BE40BED
:100F3000F50B661F771F881F991F1A9469F7609534
:100F40007095809590959B01AC01BD01CF010895EE
:100F5000EE0FFF1F0590F491E02D099481E090E0E1
:0A0F6000F8940C94B307F894FFCF47
:100F6A00000000001D028601B4016A02E501C30106
:060F7A00D7010D0A000082
:00000001FF
