:100000000C945E000C9486000C9486000C94860080
:100010000C9486000C9486000C9486000C942503A6
:100020000C9486000C9486000C9486000C94860038
:100030000C9486000C9486000C9486000C94860028
:100040000C94DB020C9486000C94A5030C947F03A3
:100050000C9486000C9486000C9486000C94860008
:100060000C9486000C9486000200000000240027F7
:10007000002A0000000000250028002B00040404D2
:100080000404040404020202020202030303030341
:10009000030102040810204080010204081020011E
:1000A0000204081020000000080002010000030400
:1000B00007000000000000000000130411241FBE10
:1000C000CFEFD8E0DEBFCDBF11E0A0E0B1E0EAE0C5
:1000D000F1E102C005900D92A234B107D9F721E0F9
:1000E000A2E4B1E001C01D92AC3FB207E1F710E01D
:1000F000CEE5D0E004C02197FE010E947808CD35FE
:10010000D107C9F70E9471040C9483080C94000075
:1001100090E0FC01EB55FF4F2491FC01EF56FF4F9F
:100120003491FC01E358FF4FE491EE2309F43CC005
:10013000222339F1233091F038F42130A9F0223014
:1001400001F584B58F7D12C0273091F02830A1F0E1
:100150002430B9F4809180008F7D03C080918000AD
:100160008F77809380000DC084B58F7784BD09C0E0
:100170008091B0008F7703C08091B0008F7D809315
:10018000B000F0E0EE0FFF1FED58FF4FA591B491C6
:100190009FB7F894611104C08C913095382302C048
:1001A000EC913E2B3C939FBF08958E3008F08E500B
:1001B0008770806480937C0080917A008064809353
:1001C0007A0080917A0086FDFCCF809178002091A2
:1001D000790090E0922B08953FB7F89480915601F2
:1001E00090915701A0915801B091590126B5A89B53
:1001F00005C02F3F19F00196A11DB11D3FBFBA2FB9
:10020000A92F982F8827820F911DA11DB11DBC0118
:10021000CD0142E0660F771F881F991F4A95D1F7DD
:1002200008958F929F92AF92BF92CF92DF92EF92FA
:10023000FF926B017C010E94EC004B015C01C11438
:10024000D104E104F104F1F00E94EC00DC01CB01E7
:1002500088199909AA09BB09883E9340A105B105EF
:1002600070F321E0C21AD108E108F10888EE880E87
:1002700083E0981EA11CB11CC114D104E104F10457
:1002800019F7DDCFFF90EF90DF90CF90BF90AF9048
:100290009F908F90089590910001891324C0E8E603
:1002A000F0E0E4919FEF90930001E130B9F098F015
:1002B000E230C9F4909170009D7F9093700091E0BE
:1002C0009093B0009091B100987F94609093B100AA
:1002D0001092B30008C010926E0005C090916F009C
:1002E0009D7F90936F0060E00C948800CF92DF9226
:1002F000EF92FF920F931F93CF93DF936C017A01DC
:100300008B01C0E0D0E0CE15DF0581F0D8016D9102
:100310008D01D601ED91FC910190F081E02DC60197
:100320000995892B11F02196EECF7E01C701DF914F
:10033000CF911F910F91FF90EF90DF90CF90089594
:10034000089580E090E00895FC01538D448D252FA1
:1003500030E0842F90E0821B930B541710F0CF965F
:10036000089501970895FC01918D828D981761F091
:10037000828DDF01A80FB11D5D968C91928D9F5FDC
:100380009F73928F90E008958FEF9FEF0895FC0187
:10039000918D828D981731F0828DE80FF11D858D3A
:1003A00090E008958FEF9FEF0895FC01918D228DCD
:1003B000892F90E0805C9F4F821B91098F73992752
:1003C00008958AE591E00E94D50121E0892B09F486
:1003D00020E0822F0895FC01848DDF01A80FB11D5C
:1003E000A35ABF4F2C91848D90E001968F7399276B
:1003F000848FA689B7892C93A089B1898C91837049
:1004000080648C93938D848D981306C00288F38941
:10041000E02D80818F7D80830895EF92FF920F936E
:100420001F93CF93DF93EC0181E0888F9B8D8C8DA0
:10043000981305C0E889F989808185FD26C0F62ECC
:100440000B8D10E00F5F1F4F0F731127E02E8C8D67
:10045000E8120CC00FB607FCFACFE889F989808151
:1004600085FFF5CFCE010E94EB01F1CF8B8DFE0110
:10047000E80FF11DE35AFF4FF0829FB7F8940B8FFE
:10048000EA89FB89808180620AC09FB7F894EE896F
:10049000FF896083E889F989808183708064808323
:1004A0009FBF81E090E0DF91CF911F910F91FF906E
:1004B000EF900895CF93DF93EC01888D8823C9F0E6
:1004C000EA89FB89808185FD05C0A889B9898C915D
:1004D00086FD0FC00FB607FCF5CF808185FFF2CFF8
:1004E000A889B9898C9185FFEDCFCE010E94EB01DF
:1004F000E7CFDF91CF91089580E090E0892B29F03C
:100500000E94E10181110C9400000895009769F0A8
:10051000FC0101900020E9F73197AF01481B590B0E
:10052000BC018AE591E00C94760180E090E00895AA
:100530008F929F92AF92BF920F931F93CF93DF93AF
:10054000CDB7DEB7A1970FB6F894DEBF0FBECDBF13
:1005500019A2423008F44AE08E010F5D1F4F842E2D
:10056000912CA12CB12CA50194010E945608E62FD4
:10057000B901CA0101501109EA3014F4E05D01C06B
:10058000E95CD801EC93232B242B252B61F7C801C0
:100590000E948602A1960FB6F894DEBF0FBECDBFB3
:1005A000DF91CF911F910F91BF90AF909F908F904F
:1005B00008950E947E081F920F920FB60F92112489
:1005C0002F933F938F939F93AF93BF93809152014B
:1005D00090915301A0915401B09155013091510176
:1005E00023E0230F2D3720F40196A11DB11D05C076
:1005F00026E8230F0296A11DB11D2093510180937F
:10060000520190935301A0935401B09355018091EE
:10061000560190915701A0915801B091590101964E
:10062000A11DB11D8093560190935701A0935801CD
:10063000B0935901BF91AF919F918F913F912F91AD
:100640000F900FBE0F901F9018951F920F920FB62C
:100650000F9211242F933F934F935F936F937F9348
:100660008F939F93AF93BF93EF93FF9380914D012F
:1006700090914E01A0914F01B0915001892B8A2B8E
:100680008B2B41F190914C01809100008927809340
:10069000000080914D0190914E01A0914F01B091C9
:1006A0005001181619061A061B06C4F480914D0154
:1006B00090914E01A0914F01B09150010197A10975
:1006C000B10980934D0190934E01A0934F01B093D7
:1006D000500104C0809100010E944B01FF91EF91F5
:1006E000BF91AF919F918F917F916F915F914F914A
:1006F0003F912F910F900FBE0F901F9018951F9252
:100700000F920FB60F9211242F933F934F935F9345
:100710006F937F938F939F93AF93BF93EF93FF93C9
:100720008AE591E00E94EB01FF91EF91BF91AF91BB
:100730009F918F917F916F915F914F913F912F91F9
:100740000F900FBE0F901F9018951F920F920FB62B
:100750000F9211242F938F939F93EF93FF93E09128
:100760006A01F0916B018081E0917001F09171015B
:1007700082FD12C09081809173018F5F8F732091F1
:100780007401821751F0E0917301F0E0E65AFE4FD8
:10079000958F8093730101C08081FF91EF919F91AC
:1007A0008F912F910F900FBE0F901F901895CF93A0
:1007B000DF9390E0FC01EF56FF4F2491FC01E358DA
:1007C000FF4F8491882361F190E0880F991FFC010D
:1007D000E759FF4FC591D491FC01ED58FF4FA5910A
:1007E000B491611109C09FB7F89488812095822344
:1007F0008883EC912E230BC0623061F49FB7F8948C
:100800008881322F309583238883EC912E2B2C9373
:100810009FBF06C08FB7F894E8812E2B28838FBF27
:10082000DF91CF910895CF93DF93EAE5F1E0138252
:10083000128288EE93E0A0E0B0E084839583A683E3
:10084000B78385E091E09183808385EC90E0958784
:10085000848784EC90E09787868780EC90E0918B8A
:10086000808B81EC90E0938B828B82EC90E0958B77
:10087000848B86EC90E0978B868B118E128E138E74
:10088000148EC9EFD1E08DE088838CE089838EE0FF
:100890008A8361E08DE00E94D70360E088810E9436
:1008A000880061E089810E94D70360E089810E940D
:1008B000880060E08A810E94D703C7EFD1E088E01A
:1008C00088838FE0898361E088E00E94D70360E03D
:1008D0008FE00E94D70361E08881DF91CF910C9473
:1008E0008800789484B5826084BD84B5816084BDBD
:1008F00085B5826085BD85B5816085BD80916E00BE
:10090000816080936E0010928100809181008260EE
:10091000809381008091810081608093810080912B
:1009200080008160809380008091B100846080931A
:10093000B1008091B00081608093B00080917A0016
:10094000846080937A0080917A00826080937A003C
:1009500080917A00816080937A0080917A0080682B
:1009600080937A001092C100E0916A01F0916B01CE
:1009700082E08083E0916601F09167011082E0914E
:100980006801F09169018FEC808310927201E0910F
:100990006E01F0916F0186E08083E0916C01F0912F
:1009A0006D01808180618083E0916C01F0916D0127
:1009B000808188608083E0916C01F0916D0180817D
:1009C00080688083E0916C01F0916D0180818F7D62
:1009D000808382E00E944B010BE211E1CFEED1E077
:1009E00060E08091F9010E94880061E08091FA0145
:1009F0000E94880061E070E080E090E00E941101B8
:100A00008091FB010E94D5007C0161E08091F90199
:100A10000E94880060E08091FA010E948800C8016D
:100A20000197F1F760E08CE00E94880083E191E09B
:100A30000E948602B70180E090E00E942D0720E02E
:100A400030EC4FE754E40E948C0620E030E048ECA4
:100A500052E40E94E4070E94FE0670E080E090E00D
:100A60004AE00E94980283E291E00E94860286E2B8
:100A700091E00E94860261E08091F7010E94880067
:100A8000CE010197F1F78091F8010E94D5007C0119
:100A900060E08091F7010E948800B701FF0C880B8D
:100AA000990B0E942F0720E030E040EA50E40E94BA
:100AB000E40720E030E040E85AE30E94E40720E049
:100AC00030E040E05FE30E941A0620E030E048ECAE
:100AD00052E40E94E4076B017C014B015C019B0125
:100AE000AC010E945108882319F086E391E01AC0F6
:100AF00026013701E89477F82FEF3FEF4FE75FE7E4
:100B0000C301B2010E94510881110FC02FEF3FEFC6
:100B10004FE75FE7C301B2010E94870618162CF465
:100B20008AE391E00E94860278C02FEF3FEF4FE703
:100B30005FE4C701B6010E94DF0718161CF48EE3BC
:100B400091E0F0CF2FEF3FEF4FE75FECC701B60129
:100B50000E94870687FDF3CF20E030E0A901C7019E
:100B6000B6010E94870687FF0BC06DE28AE591E01F
:100B70000E940D0246015701B7FAB094B7F8B0943D
:100B80002AE037ED43EA5BE3C501B4010E941B068E
:100B90004B015C010E94FE066B017C010E942D0747
:100BA0009B01AC01C501B4010E941A064B015C0116
:100BB0004AE0C701B6010E9498026EE28AE591E020
:100BC0000E940D0220E030E040E251E4C501B40192
:100BD0000E94E4074B015C010E94FE066B01E12CC0
:100BE000F12C4AE0C701B6010E949802C701B60184
:100BF0000E942D079B01AC01C501B4010E941A0699
:100C000020E030E040E251E40E94E4070E94FE064A
:100C100080E090E04AE00E94980283E291E00E9426
:100C2000860268EE73E080E090E00E9411010E946D
:100C30007C02D6CE5058BB27AA270E9432060C94BD
:100C4000A5070E94970738F00E949E0720F039F40C
:100C50009F3F19F426F40C9494070EF4E095E7FBFB
:100C60000C948E07E92F0E94B60758F3BA17620753
:100C700073078407950720F079F4A6F50C94D8073C
:100C80000EF4E0950B2EBA2FA02D0B01B9019001A7
:100C90000C01CA01A0011124FF27591B99F0593FEB
:100CA00050F4503E68F11A16F040A22F232F342F33
:100CB0004427585FF3CF469537952795A795F04081
:100CC0005395C9F77EF41F16BA0B620B730B840B96
:100CD000BAF09150A1F0FF0FBB1F661F771F881F4E
:100CE000C2F70EC0BA0F621F731F841F48F48795A6
:100CF00077956795B795F7959E3F08F0B0CF939598
:100D0000880F08F09927EE0F9795879508950E9410
:100D10006A0708F481E008950E94A0060C94A507D4
:100D20000E949E0758F00E94970740F029F45F3F09
:100D300029F00C948E0751110C94D9070C94940748
:100D40000E94B60768F39923B1F3552391F3951BDD
:100D5000550BBB27AA2762177307840738F09F5FDC
:100D60005F4F220F331F441FAA1FA9F335D00E2E49
:100D70003AF0E0E832D091505040E695001CCAF7B6
:100D80002BD0FE2F29D0660F771F881FBB1F261779
:100D900037074807AB07B0E809F0BB0B802DBF0150
:100DA000FF2793585F4F3AF09E3F510578F00C941F
:100DB0008E070C94D9075F3FE4F3983ED4F38695F1
:100DC00077956795B795F7959F5FC9F7880F911D40
:100DD0009695879597F90895E1E0660F771F881F2C
:100DE000BB1F621773078407BA0720F0621B730BDF
:100DF000840BBA0BEE1F88F7E09508950E94BE079A
:100E000088F09F5798F0B92F9927B751B0F0E1F0CB
:100E1000660F771F881F991F1AF0BA95C9F714C07B
:100E2000B13091F00E94D807B1E008950C94D80732
:100E3000672F782F8827B85F39F0B93FCCF38695B4
:100E400077956795B395D9F73EF490958095709511
:100E500061957F4F8F4F9F4F0895E89409C097FB8E
:100E60003EF490958095709561957F4F8F4F9F4F81
:100E70009923A9F0F92F96E9BB279395F6958795C5
:100E800077956795B795F111F8CFFAF4BB0F11F488
:100E900060FF1BC06F5F7F4F8F4F9F4F16C088232F
:100EA00011F096E911C0772321F09EE8872F762F65
:100EB00005C0662371F096E8862F70E060E02AF0A6
:100EC0009A95660F771F881FDAF7880F9695879592
:100ED00097F90895990F0008550FAA0BE0E8FEEF67
:100EE00016161706E807F907C0F012161306E407EE
:100EF000F50798F0621B730B840B950B39F40A26E7
:100F000061F0232B242B252B21F408950A2609F4C4
:100F1000A140A6958FEF811D811D089597F99F67C8
:100F200080E870E060E008959FEF80EC0895002471
:100F30000A941616170618060906089500240A943E
:100F400012161306140605060895092E0394000CC4
:100F500011F4882352F0BB0F40F4BF2B11F460FF53
:100F600004C06F5F7F4F8F4F9F4F089557FD90587C
:100F7000440F551F59F05F3F71F04795880F97FB5D
:100F8000991F61F09F3F79F0879508951216130617
:100F90001406551FF2CF4695F1DF08C01616170646
:100FA0001806991FF1CF869571056105089408957B
:100FB000E894BB2766277727CB0197F908950E940D
:100FC0006A0708F48FEF08950E94F7070C94A507AD
:100FD0000E94970738F00E949E0720F0952311F099
:100FE0000C948E070C94940711240C94D9070E943A
:100FF000B60770F3959FC1F3950F50E0551F629FA0
:10100000F001729FBB27F00DB11D639FAA27F00D61
:10101000B11DAA1F649F6627B00DA11D661F829F88
:101020002227B00DA11D621F739FB00DA11D621F6D
:10103000839FA00D611D221F749F3327A00D611D8A
:10104000231F849F600D211D822F762F6A2F11246C
:101050009F5750409AF0F1F088234AF0EE0FFF1F9F
:10106000BB1F661F771F881F91505040A9F79E3FF6
:10107000510580F00C948E070C94D9075F3FE4F380
:10108000983ED4F3869577956795B795F795E7954C
:101090009F5FC1F7FE2B880F911D9695879597F955
:1010A00008950E946A07880B990B0895A1E21A2EF1
:1010B000AA1BBB1BFD010DC0AA1FBB1FEE1FFF1FFC
:1010C000A217B307E407F50720F0A21BB30BE40B4C
:1010D000F50B661F771F881F991F1A9469F7609593
:1010E0007095809590959B01AC01BD01CF0108954D
:1010F000EE0FFF1F0590F491E02D099481E090E040
:0A110000F8940C948308F894FFCFD4
:10110A00FF000000000D027601A4015A02D501B3C6
:10111A0001C701536F696C206D6F697374757265CD
:10112A003A20000D0A0074656D70657261747572FB
:10113A006520433A20006E616E00696E66006F7624
:02114A0066003D
:107E0000112484B714BE81FFF0D085E080938100F7
:107E100082E08093C00088E18093C10086E0809377
:107E2000C20080E18093C4008EE0C9D0259A86E02C
:107E300020E33CEF91E0309385002093840096BBD3
:107E4000B09BFECF1D9AA8958150A9F7CC24DD24C4
:107E500088248394B5E0AB2EA1E19A2EF3E0BF2EE7
:107E6000A2D0813461F49FD0082FAFD0023811F036
:107E7000013811F484E001C083E08DD089C08234E0
:107E800011F484E103C0853419F485E0A6D080C0E4
:107E9000853579F488D0E82EFF2485D0082F10E0AE
:107EA000102F00270E291F29000F111F8ED06801E7
:107EB0006FC0863521F484E090D080E0DECF843638
:107EC00009F040C070D06FD0082F6DD080E0C81688
:107ED00080E7D80618F4F601B7BEE895C0E0D1E017
:107EE00062D089930C17E1F7F0E0CF16F0E7DF06D8
:107EF00018F0F601B7BEE89568D007B600FCFDCFD4
:107F0000A601A0E0B1E02C9130E011968C91119780
:107F100090E0982F8827822B932B1296FA010C0160
:107F200087BEE89511244E5F5F4FF1E0A038BF0790
:107F300051F7F601A7BEE89507B600FCFDCF97BE46
:107F4000E89526C08437B1F42ED02DD0F82E2BD052
:107F50003CD0F601EF2C8F010F5F1F4F84911BD097
:107F6000EA94F801C1F70894C11CD11CFA94CF0C13
:107F7000D11C0EC0853739F428D08EE10CD085E9AC
:107F80000AD08FE07ACF813511F488E018D01DD067
:107F900080E101D065CF982F8091C00085FFFCCF94
:107FA0009093C60008958091C00087FFFCCF809118
:107FB000C00084FD01C0A8958091C6000895E0E648
:107FC000F0E098E1908380830895EDDF803219F02E
:107FD00088E0F5DFFFCF84E1DECF1F93182FE3DFCA
:107FE0001150E9F7F2DF1F91089580E0E8DFEE27F6
:047FF000FF270994CA
:027FFE00040479
:0400000300007E007B
:00000001FF
