:100000000C945E000C9486000C9486000C94860080
:100010000C9486000C9486000C9486000C94F703D4
:100020000C9486000C9486000C9486000C94860038
:100030000C9486000C9486000C9486000C94860028
:100040000C94AD030C9486000C9477040C9451042A
:100050000C9486000C9486000C9486000C94860008
:100060000C9486000C9486000200000000240027F7
:10007000002A0000000000250028002B00040404D2
:100080000404040404020202020202030303030341
:10009000030102040810204080010204081020011E
:1000A0000204081020000000080002010000030400
:1000B00007000000000000000000E50411241FBE3E
:1000C000CFEFD8E0DEBFCDBF11E0A0E0B1E0E2E9C4
:1000D000F1E102C005900D92AA34B107D9F722E0F0
:1000E000AAE4B1E001C01D92A430B207E1F710E02C
:1000F000CEE5D0E004C02197FE010E94BC08CD35BA
:10010000D107C9F70E9443050C94C7080C9400005E
:1001100090E0FC01EB55FF4F2491FC01EF56FF4F9F
:100120003491FC01E358FF4FE491EE2309F43CC005
:10013000222339F1233091F038F42130A9F0223014
:1001400001F584B58F7D12C0273091F02830A1F0E1
:100150002430B9F4809180008F7D03C080918000AD
:100160008F77809380000DC084B58F7784BD09C0E0
:100170008091B0008F7703C08091B0008F7D809315
:10018000B000F0E0EE0FFF1FED58FF4FA591B491C6
:100190009FB7F894611104C08C913095382302C048
:1001A000EC913E2B3C939FBF08958E3008F08E500B
:1001B0008770806480937C0080917A008064809353
:1001C0007A0080917A0086FDFCCF809178002091A2
:1001D000790090E0922B08953FB7F89480915E01EA
:1001E00090915F01A0916001B091610126B5A89B3B
:1001F00005C02F3F19F00196A11DB11D3FBFBA2FB9
:10020000A92F982F8827820F911DA11DB11DBC0118
:10021000CD0142E0660F771F881F991F4A95D1F7DD
:1002200008958F929F92AF92BF92CF92DF92EF92FA
:10023000FF926B017C010E94EC004B015C01C11438
:10024000D104E104F104F1F00E94EC00DC01CB01E7
:1002500088199909AA09BB09883E9340A105B105EF
:1002600070F321E0C21AD108E108F10888EE880E87
:1002700083E0981EA11CB11CC114D104E104F10457
:1002800019F7DDCFFF90EF90DF90CF90BF90AF9048
:100290009F908F90089590910001891324C0E8E603
:1002A000F0E0E4919FEF90930001E130B9F098F015
:1002B000E230C9F4909170009D7F9093700091E0BE
:1002C0009093B0009091B100987F94609093B100AA
:1002D0001092B30008C010926E0005C090916F009C
:1002E0009D7F90936F0060E00C948800CF92DF9226
:1002F000EF92FF920F931F93CF93DF936C017A01DC
:100300008B01C0E0D0E0CE15DF0581F0D8016D9102
:100310008D01D601ED91FC910190F081E02DC60197
:100320000995892B11F02196EECF7E01C701DF914F
:10033000CF911F910F91FF90EF90DF90CF90089594
:10034000089580E090E00895FC01538D448D252FA1
:1003500030E0842F90E0821B930B541710F0CF965F
:10036000089501970895FC01918D828D981761F091
:10037000828DDF01A80FB11D5D968C91928D9F5FDC
:100380009F73928F90E008958FEF9FEF0895FC0187
:10039000918D828D981731F0828DE80FF11D858D3A
:1003A00090E008958FEF9FEF0895FC01918D228DCD
:1003B000892F90E0805C9F4F821B91098F73992752
:1003C000089582E691E00E94D50121E0892B09F48D
:1003D00020E0822F0895FC01848DDF01A80FB11D5C
:1003E000A35ABF4F2C91848D90E001968F7399276B
:1003F000848FA689B7892C93A089B1898C91837049
:1004000080648C93938D848D981306C00288F38941
:10041000E02D80818F7D80830895EF92FF920F936E
:100420001F93CF93DF93EC0181E0888F9B8D8C8DA0
:10043000981305C0E889F989808185FD26C0F62ECC
:100440000B8D10E00F5F1F4F0F731127E02E8C8D67
:10045000E8120CC00FB607FCFACFE889F989808151
:1004600085FFF5CFCE010E94EB01F1CF8B8DFE0110
:10047000E80FF11DE35AFF4FF0829FB7F8940B8FFE
:10048000EA89FB89808180620AC09FB7F894EE896F
:10049000FF896083E889F989808183708064808323
:1004A0009FBF81E090E0DF91CF911F910F91FF906E
:1004B000EF900895CF93DF93EC01888D8823C9F0E6
:1004C000EA89FB89808185FD05C0A889B9898C915D
:1004D00086FD0FC00FB607FCF5CF808185FFF2CFF8
:1004E000A889B9898C9185FFEDCFCE010E94EB01DF
:1004F000E7CFDF91CF91089580E090E0892B29F03C
:100500000E94E10181110C9400000895009769F0A8
:10051000FC0101900020E9F73197AF01481B590B0E
:10052000BC0182E691E00C94760180E090E00895B1
:100530008F929F92AF92BF920F931F93CF93DF93AF
:10054000CDB7DEB7A1970FB6F894DEBF0FBECDBF13
:1005500019A2423008F44AE08E010F5D1F4F842E2D
:10056000912CA12CB12CA50194010E949A08E62F90
:10057000B901CA0101501109EA3014F4E05D01C06B
:10058000E95CD801EC93232B242B252B61F7C801C0
:100590000E948602A1960FB6F894DEBF0FBECDBFB3
:1005A000DF91CF911F910F91BF90AF909F908F904F
:1005B00008958F929F92AF92BF92CF92DF92EF9267
:1005C000FF920F931F93CF93DF936B017C01142F46
:1005D0009B01AC010E949508882319F083E191E00A
:1005E00027C046015701E894B7F82FEF3FEF4FE7D8
:1005F0005FE7C501B4010E94950881110DC02FEF7E
:100600003FEF4FE75FE7C501B4010E94CB06181624
:100610001CF487E191E00CC02FEF3FEF4FE75FE460
:10062000C701B6010E942308181684F48BE191E0FB
:10063000DF91CF911F910F91FF90EF90DF90CF90BE
:10064000BF90AF909F908F900C9486022FEF3FEF5A
:100650004FE75FECC701B6010E94CB0687FDE6CFEE
:1006600020E030E0A901C701B6010E94CB0687FF58
:100670000BC06DE282E691E00E940D02EC01F7FAF8
:10068000F094F7F8F09402C0C0E0D0E000E060E041
:1006900070E080E09FE3101741F020E030E040E29E
:1006A00051E40E94D0060F5FF6CFA70196010E9489
:1006B0005F066B017C010E9442074B015C014AE02E
:1006C0000E949802C80FD91F1123B9F1C501B401C6
:1006D0000E9471079B01AC01C701B6010E945E0632
:1006E0006B017C016EE282E691E00E940D02C80F70
:1006F000D91F20E030E040E251E4C701B6010E947A
:1007000028084B015C010E9442076B01E12CF12C8F
:100710004AE0C701B6010E949802C80FD91FC7015D
:10072000B6010E9471079B01AC01C501B4010E9492
:100730005E066B017C011150E1F6CE01DF91CF9195
:100740001F910F91FF90EF90DF90CF90BF90AF90EF
:100750009F908F9008950E94C2081F920F920FB62B
:100760000F9211242F933F938F939F93AF93BF9337
:1007700080915A0190915B01A0915C01B0915D0163
:100780003091590123E0230F2D3720F40196A11D4C
:10079000B11D05C026E8230F0296A11DB11D2093AF
:1007A000590180935A0190935B01A0935C01B0932F
:1007B0005D0180915E0190915F01A0916001B09117
:1007C00061010196A11DB11D80935E0190935F01AF
:1007D000A0936001B0936101BF91AF919F918F9100
:1007E0003F912F910F900FBE0F901F9018951F9261
:1007F0000F920FB60F9211242F933F934F935F9355
:100800006F937F938F939F93AF93BF93EF93FF93D8
:100810008091550190915601A0915701B0915801D6
:10082000892B8A2B8B2B41F19091540180910000F0
:100830008927809300008091550190915601A091E5
:100840005701B0915801181619061A061B06C4F470
:100850008091550190915601A0915701B091580196
:100860000197A109B1098093550190935601A09376
:100870005701B093580104C0809100010E944B01C0
:10088000FF91EF91BF91AF919F918F917F916F9168
:100890005F914F913F912F910F900FBE0F901F903E
:1008A00018951F920F920FB60F9211242F933F931A
:1008B0004F935F936F937F938F939F93AF93BF9368
:1008C000EF93FF9382E691E00E94EB01FF91EF919D
:1008D000BF91AF919F918F917F916F915F914F9158
:1008E0003F912F910F900FBE0F901F9018951F9260
:1008F0000F920FB60F9211242F938F939F93EF9324
:10090000FF93E0917201F09173018081E091780191
:10091000F091790182FD12C0908180917B018F5FFF
:100920008F7320917C01821751F0E0917B01F0E000
:10093000EE59FE4F958F80937B0101C08081FF911E
:10094000EF919F918F912F910F900FBE0F901F905D
:100950001895CF93DF9390E0FC01EF56FF4F249161
:10096000FC01E358FF4F8491882361F190E0880FE8
:10097000991FFC01E759FF4FC591D491FC01ED5837
:10098000FF4FA591B491611109C09FB7F894888178
:10099000209582238883EC912E230BC0623061F472
:1009A0009FB7F8948881322F309583238883EC9108
:1009B0002E2B2C939FBF06C08FB7F894E8812E2B67
:1009C00028838FBFDF91CF910895CF93DF93E2E625
:1009D000F1E01382128288EE93E0A0E0B0E084831D
:1009E0009583A683B78385E091E09183808385EC2E
:1009F00090E09587848784EC90E09787868780ECE9
:100A000090E0918B808B81EC90E0938B828B82ECD9
:100A100090E0958B848B86EC90E0978B868B118E83
:100A2000128E138E148EC1E0D2E08DE088838CE0AC
:100A300089838EE08A8361E08DE00E94A90460E0F2
:100A400088810E94880061E089810E94A90460E099
:100A500089810E94880060E08A810E94A904CFEF0A
:100A6000D1E088E088838FE0898361E088E00E949C
:100A7000A90460E08FE00E94A90461E08881DF9111
:100A8000CF910C948800789484B5826084BD84B53D
:100A9000816084BD85B5826085BD85B5816085BD79
:100AA00080916E00816080936E0010928100809131
:100AB00081008260809381008091810081608093B9
:100AC0008100809180008160809380008091B100DE
:100AD00084608093B1008091B00081608093B00009
:100AE00080917A00846080937A0080917A0082609D
:100AF00080937A0080917A00816080937A0080915F
:100B00007A00806880937A001092C100E0917201AF
:100B1000F091730182E08083E0916E01F0916F01AA
:100B20001082E0917001F09171018FEC808310923E
:100B30007A01E0917601F091770186E08083E0917F
:100B40007401F0917501808180618083E09174016E
:100B5000F0917501808188608083E0917401F0914B
:100B60007501808180688083E0917401F091750146
:100B700080818F7D808382E00E944B018BE2E82E92
:100B800081E1F82E0FEE11E060E0809101020E94F9
:100B9000880061E0809102020E94880061E070E0BC
:100BA00080E090E00E941101809103020E94D50034
:100BB000EC0161E0809101020E94880060E0809178
:100BC00002020E948800C7010197F1F760E08CE003
:100BD0000E9488008FE191E00E948602BE0180E0C1
:100BE00090E00E94710720E030EC4FE754E40E944F
:100BF000D00620E030E048EC52E40E9428080E9431
:100C0000420770E080E090E04AE00E9498028FE2A4
:100C100091E00E94860282E391E00E94860261E0F8
:100C20008091FF010E948800C8010197F1F780912F
:100C300000020E94D500EC0160E08091FF010E945B
:100C40008800BE01DD0F880B990B0E94730720E01E
:100C500030E040EA50E40E94280820E030E040E81C
:100C60005AE30E9428084B015C0142E00E94D9022D
:100C700082E491E00E9486028FE291E00E94860267
:100C800020E030E040E05FE3C501B4010E945E0671
:100C900020E030E048EC52E40E94280842E00E9444
:100CA000D9028FE291E00E94860268EE73E080E054
:100CB00090E00E9411010E947C0266CF5058BB2731
:100CC000AA270E9476060C94E9070E94DB0738F0F9
:100CD0000E94E20720F039F49F3F19F426F40C94A7
:100CE000D8070EF4E095E7FB0C94D207E92F0E9499
:100CF000FA0758F3BA17620773078407950720F0BD
:100D000079F4A6F50C941C080EF4E0950B2EBA2F7E
:100D1000A02D0B01B90190010C01CA01A001112401
:100D2000FF27591B99F0593F50F4503E68F11A16AD
:100D3000F040A22F232F342F4427585FF3CF46953E
:100D400037952795A795F0405395C9F77EF41F1660
:100D5000BA0B620B730B840BBAF09150A1F0FF0F2A
:100D6000BB1F661F771F881FC2F70EC0BA0F621F16
:100D7000731F841F48F4879577956795B795F79506
:100D80009E3F08F0B0CF9395880F08F09927EE0F9B
:100D90009795879508950E94AE0708F481E008951D
:100DA0000E94E4060C94E9070E94E20758F00E94B2
:100DB000DB0740F029F45F3F29F00C94D207511172
:100DC0000C941D080C94D8070E94FA0768F3992325
:100DD000B1F3552391F3951B550BBB27AA27621737
:100DE0007307840738F09F5F5F4F220F331F441F44
:100DF000AA1FA9F335D00E2E3AF0E0E832D0915078
:100E00005040E695001CCAF72BD0FE2F29D0660F64
:100E1000771F881FBB1F261737074807AB07B0E8A7
:100E200009F0BB0B802DBF01FF2793585F4F3AF0AD
:100E30009E3F510578F00C94D2070C941D085F3F3B
:100E4000E4F3983ED4F3869577956795B795F79533
:100E50009F5FC9F7880F911D9695879597F908951B
:100E6000E1E0660F771F881FBB1F621773078407B7
:100E7000BA0720F0621B730B840BBA0BEE1F88F7C6
:100E8000E09508950E94020888F09F5798F0B92FC6
:100E90009927B751B0F0E1F0660F771F881F991FAF
:100EA0001AF0BA95C9F714C0B13091F00E941C082D
:100EB000B1E008950C941C08672F782F8827B85F3D
:100EC00039F0B93FCCF3869577956795B395D9F707
:100ED0003EF490958095709561957F4F8F4F9F4F11
:100EE0000895E89409C097FB3EF49095809570951D
:100EF00061957F4F8F4F9F4F9923A9F0F92F96E966
:100F0000BB279395F695879577956795B795F111DA
:100F1000F8CFFAF4BB0F11F460FF1BC06F5F7F4F77
:100F20008F4F9F4F16C0882311F096E911C0772389
:100F300021F09EE8872F762F05C0662371F096E892
:100F4000862F70E060E02AF09A95660F771F881F61
:100F5000DAF7880F9695879597F90895990F000805
:100F6000550FAA0BE0E8FEEF16161706E807F9077B
:100F7000C0F012161306E407F50798F0621B730B16
:100F8000840B950B39F40A2661F0232B242B252B97
:100F900021F408950A2609F4A140A6958FEF811D3A
:100FA000811D089597F99F6780E870E060E00895DB
:100FB0009FEF80EC089500240A9416161706180671
:100FC0000906089500240A9412161306140605064D
:100FD0000895092E0394000C11F4882352F0BB0FDE
:100FE00040F4BF2B11F460FF04C06F5F7F4F8F4F41
:100FF0009F4F089557FD9058440F551F59F05F3F7C
:1010000071F04795880F97FB991F61F09F3F79F02A
:1010100087950895121613061406551FF2CF4695AC
:10102000F1DF08C0161617061806991FF1CF86952E
:101030007105610508940895E894BB276627772712
:10104000CB0197F908950E94AE0708F48FEF089539
:101050000E943B080C94E9070E94DB0738F00E94CD
:10106000E20720F0952311F00C94D2070C94D807D6
:1010700011240C941D080E94FA0770F3959FC1F388
:10108000950F50E0551F629FF001729FBB27F00D36
:10109000B11D639FAA27F00DB11DAA1F649F66278B
:1010A000B00DA11D661F829F2227B00DA11D621FDA
:1010B000739FB00DA11D621F839FA00D611D221F94
:1010C000749F3327A00D611D231F849F600D211D78
:1010D000822F762F6A2F11249F5750409AF0F1F0FB
:1010E00088234AF0EE0FFF1FBB1F661F771F881F64
:1010F00091505040A9F79E3F510580F00C94D207C3
:101100000C941D085F3FE4F3983ED4F386957795E1
:101110006795B795F795E7959F5FC1F7FE2B880F09
:10112000911D9695879597F908950E94AE07880BB3
:10113000990B0895A1E21A2EAA1BBB1BFD010DC03D
:10114000AA1FBB1FEE1FFF1FA217B307E407F50777
:1011500020F0A21BB30BE40BF50B661F771F881F53
:10116000991F1A9469F760957095809590959B01E9
:10117000AC01BD01CF010895EE0FFF1F0590F49162
:10118000E02D099481E090E0F8940C94C708F8945D
:02119000FFCF8F
:10119200FF000000000D027601A4015A02D501B33E
:1011A20001C7016E616E00696E66006F766600535C
:1011B2006F696C206D6F6973747572653A20000DEA
:1011C2000A0074656D706572617475726520433AC8
:0A11D200200020766F6C747300009B
:107E0000112484B714BE81FFF0D085E080938100F7
:107E100082E08093C00088E18093C10086E0809377
:107E2000C20080E18093C4008EE0C9D0259A86E02C
:107E300020E33CEF91E0309385002093840096BBD3
:107E4000B09BFECF1D9AA8958150A9F7CC24DD24C4
:107E500088248394B5E0AB2EA1E19A2EF3E0BF2EE7
:107E6000A2D0813461F49FD0082FAFD0023811F036
:107E7000013811F484E001C083E08DD089C08234E0
:107E800011F484E103C0853419F485E0A6D080C0E4
:107E9000853579F488D0E82EFF2485D0082F10E0AE
:107EA000102F00270E291F29000F111F8ED06801E7
:107EB0006FC0863521F484E090D080E0DECF843638
:107EC00009F040C070D06FD0082F6DD080E0C81688
:107ED00080E7D80618F4F601B7BEE895C0E0D1E017
:107EE00062D089930C17E1F7F0E0CF16F0E7DF06D8
:107EF00018F0F601B7BEE89568D007B600FCFDCFD4
:107F0000A601A0E0B1E02C9130E011968C91119780
:107F100090E0982F8827822B932B1296FA010C0160
:107F200087BEE89511244E5F5F4FF1E0A038BF0790
:107F300051F7F601A7BEE89507B600FCFDCF97BE46
:107F4000E89526C08437B1F42ED02DD0F82E2BD052
:107F50003CD0F601EF2C8F010F5F1F4F84911BD097
:107F6000EA94F801C1F70894C11CD11CFA94CF0C13
:107F7000D11C0EC0853739F428D08EE10CD085E9AC
:107F80000AD08FE07ACF813511F488E018D01DD067
:107F900080E101D065CF982F8091C00085FFFCCF94
:107FA0009093C60008958091C00087FFFCCF809118
:107FB000C00084FD01C0A8958091C6000895E0E648
:107FC000F0E098E1908380830895EDDF803219F02E
:107FD00088E0F5DFFFCF84E1DECF1F93182FE3DFCA
:107FE0001150E9F7F2DF1F91089580E0E8DFEE27F6
:047FF000FF270994CA
:027FFE00040479
:0400000300007E007B
:00000001FF
